{
  "_format": "hh-sol-artifact-1",
  "contractName": "WearablesNFTs",
  "sourceName": "contracts/WearablesNFTs.sol",
  "abi": [
    {
      "inputs": [],
      "stateMutability": "nonpayable",
      "type": "constructor"
    },
    {
      "anonymous": false,
      "inputs": [
        {
          "indexed": true,
          "internalType": "address",
          "name": "account",
          "type": "address"
        },
        {
          "indexed": true,
          "internalType": "address",
          "name": "operator",
          "type": "address"
        },
        {
          "indexed": false,
          "internalType": "bool",
          "name": "approved",
          "type": "bool"
        }
      ],
      "name": "ApprovalForAll",
      "type": "event"
    },
    {
      "anonymous": false,
      "inputs": [
        {
          "indexed": true,
          "internalType": "address",
          "name": "operator",
          "type": "address"
        },
        {
          "indexed": true,
          "internalType": "address",
          "name": "from",
          "type": "address"
        },
        {
          "indexed": true,
          "internalType": "address",
          "name": "to",
          "type": "address"
        },
        {
          "indexed": false,
          "internalType": "uint256[]",
          "name": "ids",
          "type": "uint256[]"
        },
        {
          "indexed": false,
          "internalType": "uint256[]",
          "name": "values",
          "type": "uint256[]"
        }
      ],
      "name": "TransferBatch",
      "type": "event"
    },
    {
      "anonymous": false,
      "inputs": [
        {
          "indexed": true,
          "internalType": "address",
          "name": "operator",
          "type": "address"
        },
        {
          "indexed": true,
          "internalType": "address",
          "name": "from",
          "type": "address"
        },
        {
          "indexed": true,
          "internalType": "address",
          "name": "to",
          "type": "address"
        },
        {
          "indexed": false,
          "internalType": "uint256",
          "name": "id",
          "type": "uint256"
        },
        {
          "indexed": false,
          "internalType": "uint256",
          "name": "value",
          "type": "uint256"
        }
      ],
      "name": "TransferSingle",
      "type": "event"
    },
    {
      "anonymous": false,
      "inputs": [
        {
          "indexed": false,
          "internalType": "string",
          "name": "value",
          "type": "string"
        },
        {
          "indexed": true,
          "internalType": "uint256",
          "name": "id",
          "type": "uint256"
        }
      ],
      "name": "URI",
      "type": "event"
    },
    {
      "inputs": [
        {
          "internalType": "address",
          "name": "account",
          "type": "address"
        },
        {
          "internalType": "uint256",
          "name": "id",
          "type": "uint256"
        }
      ],
      "name": "balanceOf",
      "outputs": [
        {
          "internalType": "uint256",
          "name": "",
          "type": "uint256"
        }
      ],
      "stateMutability": "view",
      "type": "function"
    },
    {
      "inputs": [
        {
          "internalType": "address[]",
          "name": "accounts",
          "type": "address[]"
        },
        {
          "internalType": "uint256[]",
          "name": "ids",
          "type": "uint256[]"
        }
      ],
      "name": "balanceOfBatch",
      "outputs": [
        {
          "internalType": "uint256[]",
          "name": "",
          "type": "uint256[]"
        }
      ],
      "stateMutability": "view",
      "type": "function"
    },
    {
      "inputs": [
        {
          "internalType": "address",
          "name": "from",
          "type": "address"
        },
        {
          "internalType": "address[]",
          "name": "to",
          "type": "address[]"
        },
        {
          "internalType": "uint256",
          "name": "id",
          "type": "uint256"
        },
        {
          "internalType": "bytes",
          "name": "data",
          "type": "bytes"
        }
      ],
      "name": "distributeSingles",
      "outputs": [],
      "stateMutability": "nonpayable",
      "type": "function"
    },
    {
      "inputs": [
        {
          "internalType": "address",
          "name": "account",
          "type": "address"
        },
        {
          "internalType": "address",
          "name": "operator",
          "type": "address"
        }
      ],
      "name": "isApprovedForAll",
      "outputs": [
        {
          "internalType": "bool",
          "name": "",
          "type": "bool"
        }
      ],
      "stateMutability": "view",
      "type": "function"
    },
    {
      "inputs": [
        {
          "internalType": "address",
          "name": "recipient",
          "type": "address"
        },
        {
          "internalType": "uint256",
          "name": "amount",
          "type": "uint256"
        },
        {
          "internalType": "string",
          "name": "metadata",
          "type": "string"
        },
        {
          "internalType": "bytes",
          "name": "data",
          "type": "bytes"
        }
      ],
      "name": "mint",
      "outputs": [],
      "stateMutability": "nonpayable",
      "type": "function"
    },
    {
      "inputs": [],
      "name": "name",
      "outputs": [
        {
          "internalType": "string",
          "name": "",
          "type": "string"
        }
      ],
      "stateMutability": "view",
      "type": "function"
    },
    {
      "inputs": [
        {
          "internalType": "address",
          "name": "from",
          "type": "address"
        },
        {
          "internalType": "address",
          "name": "to",
          "type": "address"
        },
        {
          "internalType": "uint256[]",
          "name": "ids",
          "type": "uint256[]"
        },
        {
          "internalType": "uint256[]",
          "name": "amounts",
          "type": "uint256[]"
        },
        {
          "internalType": "bytes",
          "name": "data",
          "type": "bytes"
        }
      ],
      "name": "safeBatchTransferFrom",
      "outputs": [],
      "stateMutability": "nonpayable",
      "type": "function"
    },
    {
      "inputs": [
        {
          "internalType": "address",
          "name": "from",
          "type": "address"
        },
        {
          "internalType": "address",
          "name": "to",
          "type": "address"
        },
        {
          "internalType": "uint256",
          "name": "id",
          "type": "uint256"
        },
        {
          "internalType": "uint256",
          "name": "amount",
          "type": "uint256"
        },
        {
          "internalType": "bytes",
          "name": "data",
          "type": "bytes"
        }
      ],
      "name": "safeTransferFrom",
      "outputs": [],
      "stateMutability": "nonpayable",
      "type": "function"
    },
    {
      "inputs": [
        {
          "internalType": "address",
          "name": "operator",
          "type": "address"
        },
        {
          "internalType": "bool",
          "name": "approved",
          "type": "bool"
        }
      ],
      "name": "setApprovalForAll",
      "outputs": [],
      "stateMutability": "nonpayable",
      "type": "function"
    },
    {
      "inputs": [
        {
          "internalType": "string",
          "name": "newuri",
          "type": "string"
        },
        {
          "internalType": "uint256",
          "name": "tokenId",
          "type": "uint256"
        }
      ],
      "name": "setURI",
      "outputs": [],
      "stateMutability": "nonpayable",
      "type": "function"
    },
    {
      "inputs": [
        {
          "internalType": "bytes4",
          "name": "interfaceId",
          "type": "bytes4"
        }
      ],
      "name": "supportsInterface",
      "outputs": [
        {
          "internalType": "bool",
          "name": "",
          "type": "bool"
        }
      ],
      "stateMutability": "view",
      "type": "function"
    },
    {
      "inputs": [],
      "name": "symbol",
      "outputs": [
        {
          "internalType": "string",
          "name": "",
          "type": "string"
        }
      ],
      "stateMutability": "view",
      "type": "function"
    },
    {
      "inputs": [],
      "name": "tokenCount",
      "outputs": [
        {
          "internalType": "uint256",
          "name": "",
          "type": "uint256"
        }
      ],
      "stateMutability": "view",
      "type": "function"
    },
    {
      "inputs": [
        {
          "internalType": "uint256",
          "name": "tokenId",
          "type": "uint256"
        }
      ],
      "name": "uri",
      "outputs": [
        {
          "internalType": "string",
          "name": "",
          "type": "string"
        }
      ],
      "stateMutability": "view",
      "type": "function"
    }
  ],
  "bytecode": "0x60c0604052601560808190527f4d657461466163746f7279205765617261626c6573000000000000000000000060a0908152620000409160069190620000e2565b50604080518082019091526007808252664d46f09f8ebd7360c81b60209092019182526200006f9181620000e2565b503480156200007d57600080fd5b5060408051808201909152601f81527f53696e676c65204d6574616461746120555249204973204e6f742055736564006020820152620000bd81620000c9565b506001600355620001c5565b8051620000de906002906020840190620000e2565b5050565b828054620000f09062000188565b90600052602060002090601f0160209004810192826200011457600085556200015f565b82601f106200012f57805160ff19168380011785556200015f565b828001600101855582156200015f579182015b828111156200015f57825182559160200191906001019062000142565b506200016d92915062000171565b5090565b5b808211156200016d576000815560010162000172565b600181811c908216806200019d57607f821691505b60208210811415620001bf57634e487b7160e01b600052602260045260246000fd5b50919050565b6119c780620001d56000396000f3fe608060405234801561001057600080fd5b50600436106100e95760003560e01c806367db3b8f1161008c578063a22cb46511610066578063a22cb465146101ca578063d2b04fd6146101dd578063e985e9c5146101f0578063f242432a1461022c576100e9565b806367db3b8f146101a757806395d89b41146101ba5780639f181b5e146101c2576100e9565b80630e89341c116100c85780630e89341c1461014c5780632eb2c2d61461015f5780633656a1a4146101745780634e1273f414610187576100e9565b8062fdd58e146100ee57806301ffc9a71461011457806306fdde0314610137575b600080fd5b6101016100fc3660046113c2565b61023f565b6040519081526020015b60405180910390f35b6101276101223660046114ae565b6102d6565b604051901515815260200161010b565b61013f6102e9565b60405161010b91906116b1565b61013f61015a366004611530565b610377565b61017261016d366004611204565b610419565b005b61017261018236600461130d565b6104b0565b61019a61019536600461144d565b610539565b60405161010b9190611670565b6101726101b53660046114ed565b61069b565b61013f6106f7565b610101610704565b6101726101d8366004611388565b610715565b6101726101eb3660046113eb565b6107f9565b6101276101fe3660046111d2565b6001600160a01b03918216600090815260016020908152604080832093909416825291909152205460ff1690565b61017261023a3660046112aa565b61088e565b60006001600160a01b0383166102b05760405162461bcd60e51b815260206004820152602b60248201527f455243313135353a2062616c616e636520717565727920666f7220746865207a60448201526a65726f206164647265737360a81b60648201526084015b60405180910390fd5b506000908152602081815260408083206001600160a01b03949094168352929052205490565b60006102e1826108d3565b90505b919050565b600680546102f690611820565b80601f016020809104026020016040519081016040528092919081815260200182805461032290611820565b801561036f5780601f106103445761010080835404028352916020019161036f565b820191906000526020600020905b81548152906001019060200180831161035257829003601f168201915b505050505081565b600081815260046020526040902080546060919061039490611820565b80601f01602080910402602001604051908101604052809291908181526020018280546103c090611820565b801561040d5780601f106103e25761010080835404028352916020019161040d565b820191906000526020600020905b8154815290600101906020018083116103f057829003601f168201915b50505050509050919050565b6001600160a01b038516331480610435575061043585336101fe565b61049c5760405162461bcd60e51b815260206004820152603260248201527f455243313135353a207472616e736665722063616c6c6572206973206e6f74206044820152711bdddb995c881b9bdc88185c1c1c9bdd995960721b60648201526084016102a7565b6104a98585858585610923565b5050505050565b6001600160a01b0384163314806104cc57506104cc84336101fe565b6104e85760405162461bcd60e51b81526004016102a79061170c565b60005b83518110156104a9576105298585838151811061051857634e487b7160e01b600052603260045260246000fd5b602002602001015185600186610b1c565b61053281611888565b90506104eb565b6060815183511461059e5760405162461bcd60e51b815260206004820152602960248201527f455243313135353a206163636f756e747320616e6420696473206c656e677468604482015268040dad2e6dac2e8c6d60bb1b60648201526084016102a7565b6000835167ffffffffffffffff8111156105c857634e487b7160e01b600052604160045260246000fd5b6040519080825280602002602001820160405280156105f1578160200160208202803683370190505b50905060005b84518110156106935761065885828151811061062357634e487b7160e01b600052603260045260246000fd5b602002602001015185838151811061064b57634e487b7160e01b600052603260045260246000fd5b602002602001015161023f565b82828151811061067857634e487b7160e01b600052603260045260246000fd5b602090810291909101015261068c81611888565b90506105f7565b509392505050565b600081815260046020908152604090912083516106ba92850190610fd1565b50807f6bb7ff708619ba0610cba295a58592e0451dee2622938c8755667688daf3529b836040516106eb91906116b1565b60405180910390a25050565b600780546102f690611820565b600061070f60055490565b90505b90565b336001600160a01b03831614156107805760405162461bcd60e51b815260206004820152602960248201527f455243313135353a2073657474696e6720617070726f76616c20737461747573604482015268103337b91039b2b63360b91b60648201526084016102a7565b3360008181526001602090815260408083206001600160a01b0387168085529252909120805460ff1916841515179055906001600160a01b03167f17307eab39ab6107e8899845ad3d59bd9653f200f220920489ca2b5937696c31836040516107ed911515815260200190565b60405180910390a35050565b6002600354141561084c5760405162461bcd60e51b815260206004820152601f60248201527f5265656e7472616e637947756172643a207265656e7472616e742063616c6c0060448201526064016102a7565b600260035561085f600580546001019055565b600061086a60055490565b905061087885828685610c42565b610882838261069b565b50506001600355505050565b6001600160a01b0385163314806108aa57506108aa85336101fe565b6108c65760405162461bcd60e51b81526004016102a79061170c565b6104a98585858585610b1c565b60006001600160e01b03198216636cdb3d1360e11b148061090457506001600160e01b031982166303a24d0760e21b145b806102e157506301ffc9a760e01b6001600160e01b03198316146102e1565b81518351146109855760405162461bcd60e51b815260206004820152602860248201527f455243313135353a2069647320616e6420616d6f756e7473206c656e677468206044820152670dad2e6dac2e8c6d60c31b60648201526084016102a7565b6001600160a01b0384166109ab5760405162461bcd60e51b81526004016102a790611755565b3360005b8451811015610aae5760008582815181106109da57634e487b7160e01b600052603260045260246000fd5b602002602001015190506000858381518110610a0657634e487b7160e01b600052603260045260246000fd5b602090810291909101810151600084815280835260408082206001600160a01b038e168352909352919091205490915081811015610a565760405162461bcd60e51b81526004016102a79061179a565b6000838152602081815260408083206001600160a01b038e8116855292528083208585039055908b16825281208054849290610a93908490611808565b9250508190555050505080610aa790611888565b90506109af565b50846001600160a01b0316866001600160a01b0316826001600160a01b03167f4a39dc06d4c0dbc64b70af90fd698a233a518aa5d07e595d983b8c0526c8f7fb8787604051610afe929190611683565b60405180910390a4610b14818787878787610d43565b505050505050565b6001600160a01b038416610b425760405162461bcd60e51b81526004016102a790611755565b33610b5b818787610b5288610eae565b6104a988610eae565b6000848152602081815260408083206001600160a01b038a16845290915290205483811015610b9c5760405162461bcd60e51b81526004016102a79061179a565b6000858152602081815260408083206001600160a01b038b8116855292528083208785039055908816825281208054869290610bd9908490611808565b909155505060408051868152602081018690526001600160a01b03808916928a821692918616917fc3d58168c5ae7397731d063d5bbf3d657854427343f4c083240f7aacaa2d0f62910160405180910390a4610c39828888888888610f07565b50505050505050565b6001600160a01b038416610ca25760405162461bcd60e51b815260206004820152602160248201527f455243313135353a206d696e7420746f20746865207a65726f206164647265736044820152607360f81b60648201526084016102a7565b33610cb381600087610b5288610eae565b6000848152602081815260408083206001600160a01b038916845290915281208054859290610ce3908490611808565b909155505060408051858152602081018590526001600160a01b0380881692600092918516917fc3d58168c5ae7397731d063d5bbf3d657854427343f4c083240f7aacaa2d0f62910160405180910390a46104a981600087878787610f07565b6001600160a01b0384163b15610b145760405163bc197c8160e01b81526001600160a01b0385169063bc197c8190610d8790899089908890889088906004016115cd565b602060405180830381600087803b158015610da157600080fd5b505af1925050508015610dd1575060408051601f3d908101601f19168201909252610dce918101906114d1565b60015b610e7e57610ddd6118cf565b806308c379a01415610e175750610df26118e6565b80610dfd5750610e19565b8060405162461bcd60e51b81526004016102a791906116b1565b505b60405162461bcd60e51b815260206004820152603460248201527f455243313135353a207472616e7366657220746f206e6f6e20455243313135356044820152732932b1b2b4bb32b91034b6b83632b6b2b73a32b960611b60648201526084016102a7565b6001600160e01b0319811663bc197c8160e01b14610c395760405162461bcd60e51b81526004016102a7906116c4565b60408051600180825281830190925260609160009190602080830190803683370190505090508281600081518110610ef657634e487b7160e01b600052603260045260246000fd5b602090810291909101015292915050565b6001600160a01b0384163b15610b145760405163f23a6e6160e01b81526001600160a01b0385169063f23a6e6190610f4b908990899088908890889060040161162b565b602060405180830381600087803b158015610f6557600080fd5b505af1925050508015610f95575060408051601f3d908101601f19168201909252610f92918101906114d1565b60015b610fa157610ddd6118cf565b6001600160e01b0319811663f23a6e6160e01b14610c395760405162461bcd60e51b81526004016102a7906116c4565b828054610fdd90611820565b90600052602060002090601f016020900481019282610fff5760008555611045565b82601f1061101857805160ff1916838001178555611045565b82800160010185558215611045579182015b8281111561104557825182559160200191906001019061102a565b50611051929150611055565b5090565b5b808211156110515760008155600101611056565b80356001600160a01b03811681146102e457600080fd5b600082601f830112611091578081fd5b8135602061109e826117e4565b6040516110ab828261185b565b8381528281019150858301600585901b870184018810156110ca578586fd5b855b858110156110ef576110dd8261106a565b845292840192908401906001016110cc565b5090979650505050505050565b600082601f83011261110c578081fd5b81356020611119826117e4565b604051611126828261185b565b8381528281019150858301600585901b87018401881015611145578586fd5b855b858110156110ef57813584529284019290840190600101611147565b600082601f830112611173578081fd5b813567ffffffffffffffff81111561118d5761118d6118b9565b6040516111a4601f8301601f19166020018261185b565b8181528460208386010111156111b8578283fd5b816020850160208301379081016020019190915292915050565b600080604083850312156111e4578182fd5b6111ed8361106a565b91506111fb6020840161106a565b90509250929050565b600080600080600060a0868803121561121b578081fd5b6112248661106a565b94506112326020870161106a565b9350604086013567ffffffffffffffff8082111561124e578283fd5b61125a89838a016110fc565b9450606088013591508082111561126f578283fd5b61127b89838a016110fc565b93506080880135915080821115611290578283fd5b5061129d88828901611163565b9150509295509295909350565b600080600080600060a086880312156112c1578081fd5b6112ca8661106a565b94506112d86020870161106a565b93506040860135925060608601359150608086013567ffffffffffffffff811115611301578182fd5b61129d88828901611163565b60008060008060808587031215611322578384fd5b61132b8561106a565b9350602085013567ffffffffffffffff80821115611347578485fd5b61135388838901611081565b945060408701359350606087013591508082111561136f578283fd5b5061137c87828801611163565b91505092959194509250565b6000806040838503121561139a578182fd5b6113a38361106a565b9150602083013580151581146113b7578182fd5b809150509250929050565b600080604083850312156113d4578182fd5b6113dd8361106a565b946020939093013593505050565b60008060008060808587031215611400578384fd5b6114098561106a565b935060208501359250604085013567ffffffffffffffff8082111561142c578384fd5b61143888838901611163565b9350606087013591508082111561136f578283fd5b6000806040838503121561145f578182fd5b823567ffffffffffffffff80821115611476578384fd5b61148286838701611081565b93506020850135915080821115611497578283fd5b506114a4858286016110fc565b9150509250929050565b6000602082840312156114bf578081fd5b81356114ca81611978565b9392505050565b6000602082840312156114e2578081fd5b81516114ca81611978565b600080604083850312156114ff578182fd5b823567ffffffffffffffff811115611515578283fd5b61152185828601611163565b95602094909401359450505050565b600060208284031215611541578081fd5b5035919050565b6000815180845260208085019450808401835b838110156115775781518752958201959082019060010161155b565b509495945050505050565b60008151808452815b818110156115a75760208185018101518683018201520161158b565b818111156115b85782602083870101525b50601f01601f19169290920160200192915050565b6001600160a01b0386811682528516602082015260a0604082018190526000906115f990830186611548565b828103606084015261160b8186611548565b9050828103608084015261161f8185611582565b98975050505050505050565b6001600160a01b03868116825285166020820152604081018490526060810183905260a06080820181905260009061166590830184611582565b979650505050505050565b6000602082526114ca6020830184611548565b6000604082526116966040830185611548565b82810360208401526116a88185611548565b95945050505050565b6000602082526114ca6020830184611582565b60208082526028908201527f455243313135353a204552433131353552656365697665722072656a656374656040820152676420746f6b656e7360c01b606082015260800190565b60208082526029908201527f455243313135353a2063616c6c6572206973206e6f74206f776e6572206e6f7260408201526808185c1c1c9bdd995960ba1b606082015260800190565b60208082526025908201527f455243313135353a207472616e7366657220746f20746865207a65726f206164604082015264647265737360d81b606082015260800190565b6020808252602a908201527f455243313135353a20696e73756666696369656e742062616c616e636520666f60408201526939103a3930b739b332b960b11b606082015260800190565b600067ffffffffffffffff8211156117fe576117fe6118b9565b5060051b60200190565b6000821982111561181b5761181b6118a3565b500190565b600181811c9082168061183457607f821691505b6020821081141561185557634e487b7160e01b600052602260045260246000fd5b50919050565b601f8201601f1916810167ffffffffffffffff81118282101715611881576118816118b9565b6040525050565b600060001982141561189c5761189c6118a3565b5060010190565b634e487b7160e01b600052601160045260246000fd5b634e487b7160e01b600052604160045260246000fd5b600060033d111561071257600481823e5160e01c90565b600060443d10156118f657610712565b6040516003193d81016004833e81513d67ffffffffffffffff8160248401118184111715611928575050505050610712565b828501915081518181111561194257505050505050610712565b843d870101602082850101111561195e57505050505050610712565b61196d6020828601018761185b565b509094505050505090565b6001600160e01b03198116811461198e57600080fd5b5056fea2646970667358221220be598ac0a2051f2e2960e45c1564b8632031d44d150197ef6dc2bccba8d78ab264736f6c63430008030033",
  "linkReferences": {},
  "deployedLinkReferences": {}
}